{
  "contractName": "Marketplace",
  "abi": [
    {
      "inputs": [],
      "stateMutability": "nonpayable",
      "type": "constructor"
    },
    {
      "anonymous": false,
      "inputs": [
        {
          "indexed": false,
          "internalType": "address",
          "name": "nftContract",
          "type": "address"
        },
        {
          "indexed": false,
          "internalType": "uint256",
          "name": "tokenId",
          "type": "uint256"
        },
        {
          "indexed": false,
          "internalType": "address",
          "name": "seller",
          "type": "address"
        },
        {
          "indexed": false,
          "internalType": "address",
          "name": "owner",
          "type": "address"
        },
        {
          "indexed": false,
          "internalType": "uint256",
          "name": "price",
          "type": "uint256"
        }
      ],
      "name": "NFTListed",
      "type": "event"
    },
    {
      "anonymous": false,
      "inputs": [
        {
          "indexed": false,
          "internalType": "address",
          "name": "nftContract",
          "type": "address"
        },
        {
          "indexed": false,
          "internalType": "uint256",
          "name": "tokenId",
          "type": "uint256"
        },
        {
          "indexed": false,
          "internalType": "address",
          "name": "seller",
          "type": "address"
        },
        {
          "indexed": false,
          "internalType": "address",
          "name": "owner",
          "type": "address"
        },
        {
          "indexed": false,
          "internalType": "uint256",
          "name": "price",
          "type": "uint256"
        }
      ],
      "name": "NFTSold",
      "type": "event"
    },
    {
      "inputs": [],
      "name": "LISTING_FEE",
      "outputs": [
        {
          "internalType": "uint256",
          "name": "",
          "type": "uint256"
        }
      ],
      "stateMutability": "view",
      "type": "function"
    },
    {
      "inputs": [
        {
          "internalType": "address",
          "name": "_nftContract",
          "type": "address"
        },
        {
          "internalType": "uint256",
          "name": "_tokenId",
          "type": "uint256"
        },
        {
          "internalType": "uint256",
          "name": "_price",
          "type": "uint256"
        }
      ],
      "name": "listNft",
      "outputs": [],
      "stateMutability": "payable",
      "type": "function"
    },
    {
      "inputs": [
        {
          "internalType": "address",
          "name": "_nftContract",
          "type": "address"
        },
        {
          "internalType": "uint256",
          "name": "_tokenId",
          "type": "uint256"
        },
        {
          "internalType": "uint256",
          "name": "_price",
          "type": "uint256"
        }
      ],
      "name": "resellNft",
      "outputs": [],
      "stateMutability": "payable",
      "type": "function"
    },
    {
      "inputs": [
        {
          "internalType": "address",
          "name": "_nftContract",
          "type": "address"
        },
        {
          "internalType": "uint256",
          "name": "_tokenId",
          "type": "uint256"
        }
      ],
      "name": "buyNft",
      "outputs": [],
      "stateMutability": "payable",
      "type": "function"
    },
    {
      "inputs": [],
      "name": "getListingFee",
      "outputs": [
        {
          "internalType": "uint256",
          "name": "",
          "type": "uint256"
        }
      ],
      "stateMutability": "view",
      "type": "function"
    },
    {
      "inputs": [],
      "name": "getListedNfts",
      "outputs": [
        {
          "components": [
            {
              "internalType": "address",
              "name": "nftContract",
              "type": "address"
            },
            {
              "internalType": "uint256",
              "name": "tokenId",
              "type": "uint256"
            },
            {
              "internalType": "address payable",
              "name": "seller",
              "type": "address"
            },
            {
              "internalType": "address payable",
              "name": "owner",
              "type": "address"
            },
            {
              "internalType": "uint256",
              "name": "price",
              "type": "uint256"
            },
            {
              "internalType": "bool",
              "name": "listed",
              "type": "bool"
            }
          ],
          "internalType": "struct Marketplace.NFT[]",
          "name": "",
          "type": "tuple[]"
        }
      ],
      "stateMutability": "view",
      "type": "function"
    },
    {
      "inputs": [],
      "name": "getMyNfts",
      "outputs": [
        {
          "components": [
            {
              "internalType": "address",
              "name": "nftContract",
              "type": "address"
            },
            {
              "internalType": "uint256",
              "name": "tokenId",
              "type": "uint256"
            },
            {
              "internalType": "address payable",
              "name": "seller",
              "type": "address"
            },
            {
              "internalType": "address payable",
              "name": "owner",
              "type": "address"
            },
            {
              "internalType": "uint256",
              "name": "price",
              "type": "uint256"
            },
            {
              "internalType": "bool",
              "name": "listed",
              "type": "bool"
            }
          ],
          "internalType": "struct Marketplace.NFT[]",
          "name": "",
          "type": "tuple[]"
        }
      ],
      "stateMutability": "view",
      "type": "function"
    },
    {
      "inputs": [],
      "name": "getMyListedNfts",
      "outputs": [
        {
          "components": [
            {
              "internalType": "address",
              "name": "nftContract",
              "type": "address"
            },
            {
              "internalType": "uint256",
              "name": "tokenId",
              "type": "uint256"
            },
            {
              "internalType": "address payable",
              "name": "seller",
              "type": "address"
            },
            {
              "internalType": "address payable",
              "name": "owner",
              "type": "address"
            },
            {
              "internalType": "uint256",
              "name": "price",
              "type": "uint256"
            },
            {
              "internalType": "bool",
              "name": "listed",
              "type": "bool"
            }
          ],
          "internalType": "struct Marketplace.NFT[]",
          "name": "",
          "type": "tuple[]"
        }
      ],
      "stateMutability": "view",
      "type": "function"
    }
  ],
  "bytecode": "0x6080604052655af3107a400060035534801561001a57600080fd5b506001600055600480546001600160a01b03191633179055611009806100416000396000f3fe60806040526004361061007b5760003560e01c80634ddf4f8f1161004e5780634ddf4f8f146100f95780638d6cb3fb1461010c578063b8fe6abe14610121578063c922b17c1461013657600080fd5b8063047b07bf146100805780631f4cc4db146100ab5780632b86ae38146100c057806334f5b624146100e4575b600080fd5b34801561008c57600080fd5b50610095610149565b6040516100a29190610e46565b60405180910390f35b3480156100b757600080fd5b50610095610337565b3480156100cc57600080fd5b506100d660035481565b6040519081526020016100a2565b6100f76100f2366004610eec565b610579565b005b6100f7610107366004610f1f565b610756565b34801561011857600080fd5b506100956109bd565b34801561012d57600080fd5b506003546100d6565b6100f7610144366004610eec565b610b52565b6060600061015660025490565b90506000805b828110156101b6573360056000610174846001610f5f565b81526020810191909152604001600020600301546001600160a01b0316036101a457816101a081610f77565b9250505b806101ae81610f77565b91505061015c565b5060008167ffffffffffffffff8111156101d2576101d2610f90565b60405190808252806020026020018201604052801561023257816020015b6040805160c08101825260008082526020808301829052928201819052606082018190526080820181905260a082015282526000199092019101816101f05790505b5090506000805b8481101561032d573360056000610251846001610f5f565b81526020810191909152604001600020600301546001600160a01b03160361031b5760056000610282836001610f5f565b81526020808201929092526040908101600020815160c08101835281546001600160a01b0390811682526001830154948201949094526002820154841692810192909252600381015490921660608201526004820154608082015260059091015460ff16151560a0820152835184908490811061030157610301610fa6565b6020026020010181905250818061031790610f77565b9250505b8061032581610f77565b915050610239565b5090949350505050565b6060600061034460025490565b90506000805b828110156103d3573360056000610362846001610f5f565b81526020810191909152604001600020600201546001600160a01b03161480156103ae575060056000610396836001610f5f565b815260208101919091526040016000206005015460ff165b156103c157816103bd81610f77565b9250505b806103cb81610f77565b91505061034a565b5060008167ffffffffffffffff8111156103ef576103ef610f90565b60405190808252806020026020018201604052801561044f57816020015b6040805160c08101825260008082526020808301829052928201819052606082018190526080820181905260a0820152825260001990920191018161040d5790505b5090506000805b8481101561032d57336005600061046e846001610f5f565b81526020810191909152604001600020600201546001600160a01b03161480156104ba5750600560006104a2836001610f5f565b815260208101919091526040016000206005015460ff165b1561056757600560006104ce836001610f5f565b81526020808201929092526040908101600020815160c08101835281546001600160a01b0390811682526001830154948201949094526002820154841692810192909252600381015490921660608201526004820154608082015260059091015460ff16151560a0820152835184908490811061054d5761054d610fa6565b6020026020010181905250818061056390610f77565b9250505b8061057181610f77565b915050610456565b6002600054036105d05760405162461bcd60e51b815260206004820152601f60248201527f5265656e7472616e637947756172643a207265656e7472616e742063616c6c0060448201526064015b60405180910390fd5b600260005560035434146106265760405162461bcd60e51b815260206004820181905260248201527f4e6f7420656e6f75676820657468657220666f72206c697374696e672066656560448201526064016105c7565b6040516323b872dd60e01b8152336004820152306024820152604481018390526001600160a01b038416906323b872dd90606401600060405180830381600087803b15801561067457600080fd5b505af1158015610688573d6000803e3d6000fd5b505050600083815260056020819052604090912060028101805473ffffffffffffffffffffffffffffffffffffffff19908116331790915560038201805490911630179055908101805460ff19166001908117909155600482018490559091506106f190610def565b604080516001600160a01b0386168152602081018590523391810191909152306060820152608081018390527fa0c6c0d02d86fdacecbaa5fdf5894bab204e31a778250474108540733a9b8d199060a0015b60405180910390a1505060016000555050565b6002600054036107a85760405162461bcd60e51b815260206004820152601f60248201527f5265656e7472616e637947756172643a207265656e7472616e742063616c6c0060448201526064016105c7565b6002600090815581815260056020526040902060048101543410156108355760405162461bcd60e51b815260206004820152602660248201527f4e6f7420656e6f75676820657468657220746f20636f7665722061736b696e6760448201527f207072696365000000000000000000000000000000000000000000000000000060648201526084016105c7565b600281015460405133916001600160a01b0316903480156108fc02916000818181858888f19350505050158015610870573d6000803e3d6000fd5b5060018201546040516323b872dd60e01b81523060048201526001600160a01b0383811660248301526044820192909252908516906323b872dd90606401600060405180830381600087803b1580156108c857600080fd5b505af11580156108dc573d6000803e3d6000fd5b50506004546003546040516001600160a01b03909216935080156108fc029250906000818181858888f1935050505015801561091c573d6000803e3d6000fd5b5060038201805473ffffffffffffffffffffffffffffffffffffffff19166001600160a01b03831617905560058201805460ff19169055600180548101905560018201546002830154604080516001600160a01b03808916825260208201949094529183169082015290821660608201523460808201527f16f1dbd97e6bf646d429ed186cce832f1f7fd9907814293b83181e9970ab7bd29060a001610743565b606060006109ca60025490565b905060006109d760015490565b6109e19083610fbc565b905060008167ffffffffffffffff8111156109fe576109fe610f90565b604051908082528060200260200182016040528015610a5e57816020015b6040805160c08101825260008082526020808301829052928201819052606082018190526080820181905260a08201528252600019909201910181610a1c5790505b5090506000805b8481101561032d5760056000610a7c836001610f5f565b815260208101919091526040016000206005015460ff1615610b405760056000610aa7836001610f5f565b81526020808201929092526040908101600020815160c08101835281546001600160a01b0390811682526001830154948201949094526002820154841692810192909252600381015490921660608201526004820154608082015260059091015460ff16151560a08201528351849084908110610b2657610b26610fa6565b60200260200101819052508180610b3c90610f77565b9250505b80610b4a81610f77565b915050610a65565b600260005403610ba45760405162461bcd60e51b815260206004820152601f60248201527f5265656e7472616e637947756172643a207265656e7472616e742063616c6c0060448201526064016105c7565b600260005580610bf65760405162461bcd60e51b815260206004820152601c60248201527f5072696365206d757374206265206174206c656173742031207765690000000060448201526064016105c7565b6003543414610c475760405162461bcd60e51b815260206004820181905260248201527f4e6f7420656e6f75676820657468657220666f72206c697374696e672066656560448201526064016105c7565b6040516323b872dd60e01b8152336004820152306024820152604481018390526001600160a01b038416906323b872dd90606401600060405180830381600087803b158015610c9557600080fd5b505af1158015610ca9573d6000803e3d6000fd5b50505050610cbb600280546001019055565b6040805160c0810182526001600160a01b0380861682526020808301868152338486018181523060608701818152608088018a8152600160a08a0181815260008e81526005998a90528c90209a518b54908b1673ffffffffffffffffffffffffffffffffffffffff19918216178c559751918b0191909155935160028a018054918a1691881691909117905590516003890180549190981695169490941790955591516004860155905193909101805493151560ff199094169390931790925591517fa0c6c0d02d86fdacecbaa5fdf5894bab204e31a778250474108540733a9b8d1992610ddd92879287929087906001600160a01b039586168152602081019490945291841660408401529092166060820152608081019190915260a00190565b60405180910390a15050600160005550565b805480610e3e5760405162461bcd60e51b815260206004820152601b60248201527f436f756e7465723a2064656372656d656e74206f766572666c6f77000000000060448201526064016105c7565b600019019055565b602080825282518282018190526000919060409081850190868401855b82811015610ec357815180516001600160a01b039081168652878201518887015286820151811687870152606080830151909116908601526080808201519086015260a09081015115159085015260c09093019290850190600101610e63565b5091979650505050505050565b80356001600160a01b0381168114610ee757600080fd5b919050565b600080600060608486031215610f0157600080fd5b610f0a84610ed0565b95602085013595506040909401359392505050565b60008060408385031215610f3257600080fd5b610f3b83610ed0565b946020939093013593505050565b634e487b7160e01b600052601160045260246000fd5b60008219821115610f7257610f72610f49565b500190565b600060018201610f8957610f89610f49565b5060010190565b634e487b7160e01b600052604160045260246000fd5b634e487b7160e01b600052603260045260246000fd5b600082821015610fce57610fce610f49565b50039056fea2646970667358221220dde16d7ee326090b73410b209f0fb5e67637230c4fb5ed55e858edb1d4717a9a64736f6c634300080d0033",
  "immutableReferences": {},
  "source": "// SPDX-License-Identifier: MIT\r\npragma solidity ^0.8.13;\r\n\r\nimport \"@openzeppelin/contracts/utils/Counters.sol\";\r\nimport \"@openzeppelin/contracts/token/ERC721/ERC721.sol\";\r\nimport \"@openzeppelin/contracts/security/ReentrancyGuard.sol\";\r\n\r\ncontract Marketplace is ReentrancyGuard {\r\n  using Counters for Counters.Counter;\r\n  Counters.Counter private _nftsSold;\r\n  Counters.Counter private _nftCount;\r\n  uint256 public LISTING_FEE = 0.0001 ether;\r\n  address payable private _marketOwner;\r\n  mapping(uint256 => NFT) private _idToNFT;\r\n  struct NFT {\r\n    address nftContract;\r\n    uint256 tokenId;\r\n    address payable seller;\r\n    address payable owner;\r\n    uint256 price;\r\n    bool listed;\r\n  }\r\n  event NFTListed(\r\n    address nftContract,\r\n    uint256 tokenId,\r\n    address seller,\r\n    address owner,\r\n    uint256 price\r\n  );\r\n  event NFTSold(\r\n    address nftContract,\r\n    uint256 tokenId,\r\n    address seller,\r\n    address owner,\r\n    uint256 price\r\n  );\r\n\r\n  constructor() {\r\n    _marketOwner = payable(msg.sender);\r\n  }\r\n\r\n  // List the NFT on the marketplace\r\n  function listNft(address _nftContract, uint256 _tokenId, uint256 _price) public payable nonReentrant {\r\n    require(_price > 0, \"Price must be at least 1 wei\");\r\n    require(msg.value == LISTING_FEE, \"Not enough ether for listing fee\");\r\n\r\n    IERC721(_nftContract).transferFrom(msg.sender, address(this), _tokenId);\r\n\r\n    _nftCount.increment();\r\n\r\n    _idToNFT[_tokenId] = NFT(\r\n      _nftContract,\r\n      _tokenId, \r\n      payable(msg.sender),\r\n      payable(address(this)),\r\n      _price,\r\n      true\r\n    );\r\n\r\n    emit NFTListed(_nftContract, _tokenId, msg.sender, address(this), _price);\r\n  }\r\n\r\n  // Resell an NFT purchased from the marketplace\r\n  function resellNft(address _nftContract, uint256 _tokenId, uint256 _price) public payable nonReentrant {\r\n    require(msg.value == LISTING_FEE, \"Not enough ether for listing fee\");\r\n\r\n    IERC721(_nftContract).transferFrom(msg.sender, address(this), _tokenId);\r\n\r\n    NFT storage nft = _idToNFT[_tokenId];\r\n    nft.seller = payable(msg.sender);\r\n    nft.owner = payable(address(this));\r\n    nft.listed = true;\r\n    nft.price = _price;\r\n    \r\n    _nftsSold.decrement();\r\n    emit NFTListed(_nftContract, _tokenId, msg.sender, address(this), _price);\r\n  }\r\n\r\n  // Buy an NFT\r\n  function buyNft(address _nftContract, uint256 _tokenId) public payable nonReentrant {\r\n    NFT storage nft = _idToNFT[_tokenId];\r\n    require(msg.value >= nft.price, \"Not enough ether to cover asking price\");\r\n\r\n    address payable buyer = payable(msg.sender);\r\n    payable(nft.seller).transfer(msg.value);\r\n    IERC721(_nftContract).transferFrom(address(this), buyer, nft.tokenId);\r\n    _marketOwner.transfer(LISTING_FEE);\r\n    nft.owner = buyer;\r\n    nft.listed = false;\r\n\r\n    _nftsSold.increment();\r\n    emit NFTSold(_nftContract, nft.tokenId, nft.seller, buyer, msg.value);\r\n  }\r\n  \r\n  function getListingFee() public view returns (uint256) {\r\n    return LISTING_FEE;\r\n  }\r\n\r\n  function getListedNfts() public view returns (NFT[] memory) {\r\n    uint256 nftCount = _nftCount.current();\r\n    uint256 unsoldNftsCount = nftCount - _nftsSold.current();\r\n\r\n    NFT[] memory nfts = new NFT[](unsoldNftsCount);\r\n    uint nftsIndex = 0;\r\n    for (uint i = 0; i < nftCount; i++) {\r\n      if (_idToNFT[i + 1].listed) {\r\n        nfts[nftsIndex] = _idToNFT[i + 1];\r\n        nftsIndex++;\r\n      }\r\n    }\r\n    return nfts;\r\n  }\r\n\r\n  function getMyNfts() public view returns (NFT[] memory) {\r\n    uint nftCount = _nftCount.current();\r\n    uint myNftCount = 0;\r\n    for (uint i = 0; i < nftCount; i++) {\r\n      if (_idToNFT[i + 1].owner == msg.sender) {\r\n        myNftCount++;\r\n      }\r\n    }\r\n\r\n    NFT[] memory nfts = new NFT[](myNftCount);\r\n    uint nftsIndex = 0;\r\n    for (uint i = 0; i < nftCount; i++) {\r\n      if (_idToNFT[i + 1].owner == msg.sender) {\r\n        nfts[nftsIndex] = _idToNFT[i + 1];\r\n        nftsIndex++;\r\n      }\r\n    }\r\n    return nfts;\r\n  }\r\n\r\n  function getMyListedNfts() public view returns (NFT[] memory) {\r\n    uint nftCount = _nftCount.current();\r\n    uint myListedNftCount = 0;\r\n    for (uint i = 0; i < nftCount; i++) {\r\n      if (_idToNFT[i + 1].seller == msg.sender && _idToNFT[i + 1].listed) {\r\n        myListedNftCount++;\r\n      }\r\n    }\r\n\r\n    NFT[] memory nfts = new NFT[](myListedNftCount);\r\n    uint nftsIndex = 0;\r\n    for (uint i = 0; i < nftCount; i++) {\r\n      if (_idToNFT[i + 1].seller == msg.sender && _idToNFT[i + 1].listed) {\r\n        nfts[nftsIndex] = _idToNFT[i + 1];\r\n        nftsIndex++;\r\n      }\r\n    }\r\n    return nfts;\r\n  }\r\n}",
  "sourcePath": "C:\\Users\\akank\\vit-marketplace\\contracts\\optimism\\Marketplace.sol",
  "compiler": {
    "name": "solc",
    "version": "0.8.13+commit.abaa5c0e.Emscripten.clang"
  },
  "schemaVersion": "3.4.8",
  "updatedAt": "2022-07-27T16:58:43.710Z",
  "devdoc": {
    "kind": "dev",
    "methods": {},
    "version": 1
  },
  "userdoc": {
    "kind": "user",
    "methods": {},
    "version": 1
  }
}